:020000040800F2
:1000000000280020E5190008751900087B19000870
:1000100081190008871900088D19000800000000E8
:10002000000000000000000000000000931900081C
:100030009F19000800000000AB190008B71900085C
:100040002D1A00082D1A00082D1A00082D1A000874
:100050002D1A00082D1A00082D1A00082D1A000864
:100060002D1A00082D1A00082D1A00082D1A000854
:100070002D1A00082D1A00082D1A00082D1A000844
:100080002D1A00082D1A00082D1A00082D1A000834
:100090002D1A00082D1A00082D1A00082D1A000824
:1000A0002D1A00082D1A00082D1A00082D1A000814
:1000B000C51900082D1A0008000000002D1A0008BC
:1000C0002D1A000800000000000000002D1A000892
:1000D000000000002D1A00082D1A00080000000082
:1000E0002D1A00082D1A00082D1A00080000000023
:1000F0000000000000000000000000000000000000
:0C01000000000000000000005FF808F1A3
:10010C0010B5054C237833B9044B13B10448AFF345
:10011C0000800123237010BD780000200000000037
:10012C005C30000808B5034B1BB103490348AFF31F
:10013C00008008BD000000007C0000205C3000083E
:10014C0080B483B000AF7860094A7B6852F82330E2
:10015C00002B06D0064A7B68002142F823100123AD
:10016C0000E0002318460C37BD4680BC704700BF2A
:10017C009400002080B582B000AF00237B607AE051
:10018C00414A7B6852F8232040497B6841F8232080
:10019C003F4A7B6852F823203B497B6841F8232077
:1001AC003C4A7B6852F823203B497B6831F813307A
:1001BC001946104601F020FF03461946344A7B6865
:1001CC0042F82310324A7B6852F823202E497B6870
:1001DC0051F823309A424BD12B4A7B6852F823209A
:1001EC002A497B6851F823309A4241D12B4A7B68CB
:1001FC0052F8232025497B6851F823309A4218D0B5
:10020C00224A7B6852F8232024497B6841F823203A
:10021C00224A7B6852F82330002B29D1204A7B6874
:10022C00642142F823101F4A7B68012142F82310F5
:10023C001EE01B4A7B6852F823305A1E18497B6813
:10024C0041F82320164A7B6852F82330002B0FD13B
:10025C00134A7B68642142F82310104A7B6852F8D9
:10026C002330002B04D10F4A7B68012142F8231064
:10027C007B6801337B607B68022B81DD00BF00BF94
:10028C000837BD4680BD00BF0C00002018000020C0
:10029C00000000203C00002048000020240000202A
:1002AC00300000209400002080B500AF954B1B68F7
:1002BC00042B00F2968101A252F823F0DD02000813
:1002CC000D030008B7030008690400083105000895
:1002DC008C4B01221A60FA21002001F083FA4FF4B2
:1002EC007A71012001F07EFA874B1B68874A1360F4
:1002FC00874B1B68874A1360874B00221A6070E19A
:10030C00002001F097FA0346002B23D0814B1B6889
:10031C007E4A12681146184601F01CF8794B1B688E
:10032C00184600F02DFC20217C4801F094FE7A4BFD
:10033C001B685A1C78490A60184600F07FFF764B00
:10034C001B68032B02DD744B00221A60FA2100207B
:10035C0001F048FA012001F06DFA0346002B0ED093
:10036C006C4B1B68013B6B4A1360684B1B68013B71
:10037C00664A13604FF47A71012001F033FA654B31
:10038C001B68002B06DC5F4B02221A60644B1B6857
:10039C00604A13600020FFF7D3FE0346012B40F0A8
:1003AC001981584B05221A6014E1002001F042FA21
:1003BC000346002B23D0574B1B68544A1268114636
:1003CC00184600F0C7FF4F4B1B68184600F0D8FBCF
:1003DC002021524801F03FFE4F4B1B685A1C4E49DE
:1003EC000A60184600F02AFF4B4B1B68032B02DDFA
:1003FC00494B00221A60FA21002001F0F3F9012088
:10040C0001F018FA0346002B0ED0424B1B68013B3F
:10041C00404A13603D4B1B68013B3C4A13604FF450
:10042C007A71012001F0DEF93A4B1B68002B0ADCD3
:10043C00344B03221A60364B1B68344A1360324B20
:10044C001B68344A13600020FFF77AFE0346012B29
:10045C0040F0C2802B4B05221A60BDE0002001F059
:10046C00E9F90346002B23D02A4B1B68274A126854
:10047C001146184600F06EFF224B1B68184600F020
:10048C007FFB2021254801F0E6FD234B1B685A1CFD
:10049C0021490A60184600F0D1FE1F4B1B68032B44
:1004AC0002DD1D4B00221A60FA21002001F09AF99E
:1004BC00012001F0BFF90346002B0ED0154B1B6831
:1004CC00013B144A1360114B1B68013B0F4A13602C
:1004DC004FF47A71012001F085F90C4B1B68002B4D
:1004EC0006DC084B04221A600D4B1B68074A13608C
:1004FC000020FFF725FE0346012B6FD1014B05228F
:10050C001A606BE0B800002060000020B4000020EE
:10051C0068000020B0000020A0000020000801406E
:10052C0064000020002001F085F90346002B23D045
:10053C002D4B1B682D4A12681146184600F00AFF15
:10054C002B4B1B68184600F01BFB2021294801F09F
:10055C0082FD294B1B685A1C27490A60184600F07B
:10056C006DFE254B1B68032B02DD234B00221A600A
:10057C00FA21002001F036F9012001F05BF9034665
:10058C00002B0ED0184B1B68013B174A1360174BFE
:10059C001B68013B154A13604FF47A71012001F07E
:1005AC0021F9124B1B68002B0ADC114B01221A603B
:1005BC00124B1B680D4A1360114B1B680A4A1360DF
:1005CC000020FFF7BDFD0346012B09D1084B052286
:1005DC001A6005E000BF04E000BF02E000BF00E0CD
:1005EC0000BF00BF80BD00BFB0000020B4000020E1
:1005FC00B800002000080140A0000020600000208E
:10060C006800002080B500AF854B1B680B2B00F0F9
:10061C001F810B2B00F3A381092B02D00A2B7FD057
:10062C009DE1804B1B68804A82FB03129210DB1702
:10063C00D31A7E4A13607B4B19687B4B83FB0123D7
:10064C009A10CB17D21A13469B0013445B00CA1A9C
:10065C00764B5A60754B00229A60744B0122DA601B
:10066C00002001F0E7F80346002B1BD06C4B1B68F5
:10067C00184600F085FA20216D4801F0ECFC6D4B1A
:10068C001B685A1C6B490A60184600F0D7FD694B71
:10069C001B68032B02DD674B00221A60FA21002035
:1006AC0001F0A0F80220FFF74BFD0346012B17D1F8
:1006BC005C4B1B68322B00F347815A4B1B685E4A1C
:1006CC0013605D4B1A685D4B1B68D31A5C4A136050
:1006DC00594B1B685B4A1360594B1B685A4A136091
:1006EC000020FFF72DFD0346012B04D14C4B0A22B1
:1006FC001A6000F0BFFB0120FFF722FD0346012B1F
:10070C0040F02481474B1B680133464A1360454B2C
:10071C001B68632B40F31A81424B00221A6015E1CF
:10072C004A4B1B68404A82FB03129210DB17D31A08
:10073C003E4A1360454B19683B4B83FB01239A10CF
:10074C00CB17D21A13469B0013445B00CA1A374BC3
:10075C005A60364B00229A60344B0222DA60002039
:10076C0001F068F80346002B1BD02D4B1B68184674
:10077C0000F006FA20212E4801F06DFC2D4B1B6871
:10078C005A1C2C490A60184600F058FD294B1B686E
:10079C00032B02DD274B00221A60FA21002001F006
:1007AC0021F80220FFF7CCFC0346012B17D1274B75
:1007BC001B68312B00F3CC80244B1B68204A136040
:1007CC001F4B1A681D4B1B6813441B4A13601A4BB2
:1007DC001B681C4A13601A4B1B681B4A13600020D1
:1007EC00FFF7AEFC0346012B04D10D4B0B221A6014
:1007FC0000F040FB0120FFF7A3FC0346012B40F067
:10080C00A980124B1B680133104A13600F4B1B68F5
:10081C00632B40F39F800D4B00221A609AE000BFBF
:10082C00B8000020A4000020676666665000002017
:10083C0000080140A000002060000020640000209F
:10084C0068000020B4000020B0000020AC000020A4
:10085C00444B1B68444A82FB03129210DB17D31AD9
:10086C00424A13603F4B19683F4B83FB01239A109C
:10087C00CB17D21A13469B0013445B00CA1A3B4B8E
:10088C005A603A4B00229A60384B0322DA600020FF
:10089C0000F0D0FF0346002B1BD0354B1B681846CD
:1008AC0000F06EF92021334801F0D5FB324B1B6868
:1008BC005A1C31490A60184600F0C0FC2E4B1B68CC
:1008CC00032B02DD2C4B00221A60FA21002000F0D1
:1008DC0089FF0220FFF734FC0346012B16D1214B74
:1008EC001B68052B38DC1F4B1B68244A1360244BF8
:1008FC001A68224B1B681344224A1360214B1B6855
:10090C00214A13601E4B1B68204A13600020FFF71E
:10091C0017FC0346012B04D1154B00221A6000F082
:10092C00A9FA0120FFF70CFC0346012B16D10D4B45
:10093C001B6801330B4A13600A4B1B68632B0DDDDC
:10094C00084B00221A6009E000BF08E000BF06E077
:10095C0000BF04E000BF02E000BF00E000BF00BF2A
:10096C0080BD00BFA80000206766666650000020AE
:10097C00B800002000080140A00000206400002006
:10098C006800002060000020B4000020B0000020AF
:10099C0080B500AF774B1B68053B032B00F2E8805A
:1009AC0001A252F823F000BFC5090008130A000881
:1009BC009B0A0008E70A0008002000F03BFF0346F2
:1009CC00002B03D020216C4801F045FB00F01AFCF1
:1009DC00684B1B68184600F0D3F80120FFF7B0FBFA
:1009EC000346012B02D1634B06221A600020FFF74D
:1009FC00A7FB0346012B40F0B48000F03BFA5D4BA3
:100A0C0009221A60ADE0002000F014FF0346002B11
:100A1C0003D02021584801F01EFB00F0F3FB554B8E
:100A2C001B68184600F0ACF8544B1B68002B07D120
:100A3C004FF4FA61022000F0D5FE504B01221A60EF
:100A4C00022000F0F7FE0346002B05D0494B07228D
:100A5C001A604A4B00221A600120FFF771FB034613
:100A6C00012B05D1434B07221A60444B00221A601C
:100A7C000020FFF765FB0346012B74D13F4B00228E
:100A8C001A6000F0F7F93B4B09221A606BE000206A
:100A9C0000F0D0FE0346002B03D02021364801F095
:100AAC00DAFA00F0AFFB334B1B68184600F068F81D
:100ABC000120FFF745FB0346012B02D12D4B0822E9
:100ACC001A600020FFF73CFB0346012B4DD100F0D0
:100ADC00D1F9284B09221A6047E0002000F0AAFE49
:100AEC000346002B03D02021234801F0B4FA00F078
:100AFC0089FB204B1B68184600F042F81F4B1B6803
:100B0C00002B07D14FF4FA61022000F06BFE1B4B57
:100B1C0001221A60022000F08DFE0346002B05D046
:100B2C00144B05221A60154B00221A600120FFF7A6
:100B3C0007FB0346012B05D1104B00221A600D4B0D
:100B4C0005221A600020FFF7FBFA0346012B0ED199
:100B5C000A4B00221A6000F08DF9064B09221A602C
:100B6C0005E000BF04E000BF02E000BF00E000BFF2
:100B7C0000BF80BDB800002000080140BC00002070
:100B8C0080B582B000AF78607B680B2B00F2688177
:100B9C0001A252F823F000BFD50B0008DB0B0008B4
:100BAC00250C00086F0C0008B90C0008030D000898
:100BBC004D0D0008970D0008E10D00082B0E0008E4
:100BCC00410E0008570E000801237B604BE1002208
:100BDC004FF40041A64801F026FA00224FF4804160
:100BEC00A34801F020FA01224FF40051A04801F073
:100BFC001AFA01224FF480519D4801F014FA002298
:100C0C004FF400619A4801F00EFA00224FF4806113
:100C1C00974801F008FA26E100224FF4004194486D
:100C2C0001F001FA01224FF48041914801F0FBF9E7
:100C3C0000224FF400518E4801F0F5F901224FF4D7
:100C4C0080518B4801F0EFF900224FF40061884885
:100C5C0001F0E9F900224FF48061854801F0E3F9D5
:100C6C0001E101224FF40041814801F0DCF900223E
:100C7C004FF480417E4801F0D6F900224FF4005128
:100C8C007B4801F0D0F900224FF48051784801F0F4
:100C9C00CAF900224FF40061754801F0C4F9012231
:100CAC004FF48061724801F0BEF9DCE001224FF490
:100CBC0000416F4801F0B7F900224FF480416C48B5
:100CCC0001F0B1F900224FF40051694801F0ABF981
:100CDC0000224FF48051664801F0A5F901224FF42F
:100CEC000061634801F09FF900224FF48061604875
:100CFC0001F099F9B7E000224FF400415C4801F093
:100D0C0092F900224FF48041594801F08CF90122EC
:100D1C004FF40051564801F086F901224FF48051EE
:100D2C00534801F080F900224FF40061504801F063
:100D3C007AF900224FF480614D4801F074F992E089
:100D4C0000224FF400414A4801F06DF901224FF4A2
:100D5C008041474801F067F900224FF400514448A4
:100D6C0001F061F901224FF48051414801F05BF927
:100D7C0000224FF400613E4801F055F900224FF477
:100D8C0080613B4801F04FF96DE001224FF40041C6
:100D9C00374801F048F900224FF48041344801F003
:100DAC0042F900224FF40051314801F03CF9002285
:100DBC004FF480512E4801F036F900224FF40061B7
:100DCC002B4801F030F901224FF48061284801F0E2
:100DDC002AF948E001224FF40041254801F023F99B
:100DEC0000224FF48041224801F01DF900224FF4FB
:100DFC0000511F4801F017F900224FF480511C4894
:100E0C0001F011F901224FF40061194801F00BF9BE
:100E1C0000224FF48061164801F005F923E04FF4ED
:100E2C000041134801F017F94FF48051104801F0BC
:100E3C0012F918E04FF400510D4801F00CF94FF481
:100E4C0080610B4801F007F90DE04FF48041084830
:100E5C0001F001F94FF40061054801F0FCF802E0E3
:100E6C0000237B6000BF00BF0837BD4680BD00BFBC
:100E7C00000C014080B500AF00224FF40041114836
:100E8C0001F0D1F800224FF480510E4801F0CBF85C
:100E9C0000224FF480410B4801F0C5F800224FF4BA
:100EAC000061084801F0BFF800224FF400510548DA
:100EBC0001F0B9F800224FF48061024801F0B3F858
:100ECC0000BF80BD000C014080B500AF00F0AAFD52
:100EDC0000F030F800F0B6F800F068F80F4801F0B8
:100EEC00FFFC012200210E4800F0AEFA0122002185
:100EFC000C4800F0A9FA012200210B4800F0A4FADA
:100F0C0001220021094800F09FFA01220021084823
:100F1C0000F09AFA00F03EFCFCE700BF8C010020C8
:100F2C007518000881010008B50200089D09000829
:100F3C001106000880B590B000AF07F11803282205
:100F4C000021184602F07CF83B1D00221A605A6002
:100F5C009A60DA601A610223BB610123BB62102321
:100F6C00FB6200237B6307F11803184601F08CF831
:100F7C000346002B01D000F029FA0F237B600023DD
:100F8C00BB600023FB6000233B6100237B613B1DA6
:100F9C000021184601F0F8FA0346002B01D000F0AE
:100FAC0015FA00BF4037BD4680BD000080B586B045
:100FBC0000AF07F1080300221A605A609A60DA60E9
:100FCC003B4600221A605A601D4B4FF080421A605B
:100FDC001B4B41F63F725A60194B00229A60184B1A
:100FEC000922DA60164B00221A61154B00229A6115
:100FFC00134801F025FC0346002B01D000F0E6F964
:10100C004FF48053BB6007F1080319460C4801F0FC
:10101C00A3FD0346002B01D000F0D8F900233B6060
:10102C0000237B603B461946054801F07BFF0346D5
:10103C00002B01D000F0CAF900BF1837BD4680BDA7
:10104C008C01002080B588B000AF07F1100300229E
:10105C001A605A609A60DA602F4B9B692E4A43F0F3
:10106C00100393612C4B9B6903F01003FB60FB682E
:10107C00294B9B69284A43F004039361264B9B69D7
:10108C0003F00403BB60BB68234B9B69224A43F00B
:10109C0008039361204B9B6903F008037B607B681A
:1010AC0000224FF47C711D4800F0BDFF00224FF66A
:1010BC007F411B4800F0B7FF4FF460433B610023B6
:1010CC007B610123BB6107F110031946154800F041
:1010DC0019FE4FF47C733B6101237B610023BB61E0
:1010EC000223FB6107F1100319460C4800F00AFEBD
:1010FC004FF67F433B6101237B610023BB610223DD
:10110C00FB6107F110031946054800F0FBFD00BF19
:10111C002037BD4680BD00BF0010024000080140D2
:10112C00000C01400010014080B582B000AF786027
:10113C0000F06AF900BF0837BD4680BD80B584B0A9
:10114C0000AF78607B68002B53DB7B68092B50DC8D
:10115C002A4A7B6813441B78FB73FB7B03F0010367
:10116C00DBB21A460121264800F05DFFFB7B5B08D1
:10117C00DBB203F00103DBB21A460221204800F077
:10118C0052FFFB7B9B08DBB203F00103DBB21A4678
:10119C0004211B4800F047FFFB7BDB08DBB203F0AC
:1011AC000103DBB21A460821154800F03CFFFB7B1B
:1011BC001B09DBB203F00103DBB21A461021104805
:1011CC0000F031FFFB7B5B09DBB203F00103DBB208
:1011DC001A4620210A4800F026FFFB7B9B09DBB254
:1011EC0003F00103DBB21A464021054800F01BFF57
:1011FC0000E000BF1037BD4680BD00BF7430000852
:10120C00000C014080B500AF002240210A4800F0DC
:10121C000AFF00228021084800F005FF00224FF44D
:10122C008071054800F0FFFE00224FF40071024867
:10123C0000F0F9FE00BF80BD0008014080B582B00F
:10124C0000AF78607B68032B7AD801A252F823F0A8
:10125C006D120008A5120008DD1200081513000815
:10126C003A4B1B681846FFF769FF012240213848AA
:10127C0000F0D9FE00228021354800F0D4FE002277
:10128C004FF48071324800F0CEFE00224FF4007112
:10129C002F4800F0C8FE54E02C4B5B681846FFF753
:1012AC004DFF002240212A4800F0BDFE0122802182
:1012BC00274800F0B8FE00224FF48071244800F05B
:1012CC00B2FE00224FF40071214800F0ACFE38E071
:1012DC001E4B9B681846FFF731FF002240211C482B
:1012EC0000F0A1FE00228021194800F09CFE012292
:1012FC004FF48071164800F096FE00224FF40071F6
:10130C00134800F090FE1CE0104BDB681846FFF70A
:10131C0015FF002240210E4800F085FE002280219E
:10132C000B4800F080FE00224FF48071084800F05A
:10133C007AFE01224FF40071054800F074FE00E0C3
:10134C0000BF00BF0837BD4680BD00BF5000002065
:10135C000008014080B483B000AF786039607B68CE
:10136C00184A82FB03129210DB17D31A164A136029
:10137C007968144B83FB01239A10CB17D21A1346AE
:10138C009B0013445B00CA1A0F4B5A603B680D4A12
:10139C0082FB03129210DB17D31A0B4A9360396845
:1013AC00084B83FB01239A10CB17D21A13469B00D0
:1013BC0013445B00CA1A044BDA6000BF0C37BD46FD
:1013CC0080BC7047676666665000002080B400AF32
:1013DC0072B600BFFEE7000080B400AF094B1B687B
:1013EC000133084A1360074B1B68002B04D1054BD3
:1013FC001B680133034A1360024B1B681846BD4639
:10140C0080BC70478801002080B400AF0D4B1B6876
:10141C00002B13D00B4B1B7B002B0FD1094B5B68A4
:10142C00002B04D0074B5B68013B064A5360054B0D
:10143C005B68002B02D1034B01221A7300BFBD461F
:10144C0080BC7047C0000020B0B588B000AFF86019
:10145C00B9607A600023FB6100237B610023FB767B
:10146C000023FB76E7E0FA7E774913469B00134492
:10147C009B000B4404331B68FA691344FB61FA6943
:10148C00BB689A427CD9FA7E6F4913469B00134481
:10149C009B000B4404331A68FB69D31ABA681344D3
:1014AC007B61FA7EF969BB68C91A674813469B00D1
:1014BC0013449B000344043319600923BB7617E0E3
:1014CC00BB7E5A1EB97E60480B469B000B449B00AA
:1014DC0018445D4913469B0013449B000B4404467F
:1014EC001D460FCD0FC42B682360BB7E013BBB7622
:1014FC00BA7EFB7E9A42E3D8FA7E534913469B0090
:10150C0013449B000B44FA681A60FA7E4E4913464A
:10151C009B0013449B000B4404337A691A60FA7ED7
:10152C00494913469B0013449B000B4408337A68CB
:10153C001A607B69002B0CBF01230023DBB2FA7EFF
:10154C001846414913469B0013449B000B440C3333
:10155C0002461A70FC7EFFF73FFF02463A492346CB
:10156C009B0023449B000B4410331A60FA7E3649CF
:10157C0013469B0013449B000B4410331B685FE025
:10158C00FA7E314913469B0013449B000B441B68A5
:10159C00002B4DD1FA7E2C4913469B0013449B0023
:1015AC000B44FA681A60FA7EB968FB69C91A2648B6
:1015BC0013469B0013449B00034404331960FA7ECA
:1015CC00214913469B0013449B000B4408337A6853
:1015DC001A60FA7E1C4913469B0013449B000B4473
:1015EC0004331B68002B0CBF01230023DBB2FA7EF3
:1015FC001846154913469B0013449B000B440C33AF
:10160C0002461A70FC7EFFF7E7FE02460E4923469F
:10161C009B0023449B000B4410331A60FA7E0A494A
:10162C0013469B0013449B000B4410331B6807E0CC
:10163C00FB7E0133FB76FB7E092B7FF614AF002378
:10164C0018462037BD46B0BDC0000020B0B485B0F0
:10165C0000AF78607B68002B01D1002393E000235E
:10166C00FB738BE0FA7B4A4913469B0013449B00A7
:10167C000B4410331B687A689A427CD1FB7B082B95
:10168C0028D8FB7B5A1C424913469B0013449B00F1
:10169C000B441B68002B1DD0FB7B5A1C3C4913468A
:1016AC009B0013449B000B4404331968FA7B3848A5
:1016BC0013469B0013449B00034404331B68FA7BC2
:1016CC0001321944324813469B0013449B000344D7
:1016DC0004331960FB7BBB7317E0BB7B5A1CB97BD3
:1016EC002B480B469B000B449B001844284913467F
:1016FC009B0013449B000B4404461D460FCD0FC4A6
:10170C002B682360BB7B0133BB73BB7B082BE4D9F9
:10171C00BA7B1F4913469B0013449B000B440022C9
:10172C001A60BA7B1A4913469B0013449B000B4466
:10173C00043300221A60BA7B154913469B001344EC
:10174C009B000B44083300221A60BA7B10491346E5
:10175C009B0013449B000B440C3300221A70BA7B81
:10176C000B4913469B0013449B000B44103300227F
:10177C001A60012307E0FB7B0133FB73FB7B092B16
:10178C007FF670AF002318461437BD46B0BC7047C7
:10179C00C0000020B0B586B000AF114B1B7B002BF6
:1017AC0019D00F4B1B6898470D4B00221A730C4B2A
:1017BC003C1D1D460FCD0FC42B6823607B6918465A
:1017CC00FFF744FFFB68002B05D07B68F968FA68CB
:1017DC001846FFF739FE00BF1837BD46B0BD00BF35
:1017EC00C000002080B483B000AF786039607B68A3
:1017FC00002B13DB7B68132B10DC3B680A4A82FB43
:10180C0003129210DB17D21A08497B6841F8232087
:10181C00074A7B68002142F8231000E000BF0C3718
:10182C00BD4680BC704700BF67666666D401002069
:10183C002402002080B483B000AF7860094A7B6832
:10184C0052F82330012B06D1064A7B68002142F85E
:10185C002310012300E0002318460C37BD4680BC42
:10186C00704700BF2402002080B483B000AF002377
:10187C007B6016E00F4A7B6852F823305A1E0D49E4
:10188C007B6841F823200B4A7B6852F82330002BED
:10189C0004DC094A7B68012142F823107B68013380
:1018AC007B607B68132BE5DD00BF00BF0C37BD46AA
:1018BC0080BC7047D40100202402002080B485B085
:1018CC0000AF154B9B69144A43F001039361124B13
:1018DC009B6903F00103BB60BB680F4BDB690E4ACD
:1018EC0043F08053D3610C4BDB6903F080537B6076
:1018FC007B680A4B5B68FB60FB6823F0E063FB6072
:10190C00FB6843F08063FB60044AFB68536000BFD4
:10191C001437BD4680BC70470010024000000140E7
:10192C0080B584B000AF78607B681B68B3F1804FE2
:10193C0013D10C4BDB690B4A43F00103D361094B08
:10194C00DB6903F00103FB60FB68002200211C2013
:10195C0000F0A1F91C2000F0BAF900BF1037BD4609
:10196C0080BD00BF0010024080B400AFFEE780B421
:10197C0000AFFEE780B400AFFEE780B400AFFEE737
:10198C0080B400AFFEE780B400AF00BFBD4680BCA2
:10199C00704780B400AF00BFBD4680BC704780B4B8
:1019AC0000AF00BFBD4680BC704780B500AF00F0F3
:1019BC007FF800BF80BD000080B500AF024800F08A
:1019CC00DBFF00BF80BD00BF8C01002080B400AFE6
:1019DC0000BFBD4680BC7047FFF7F8FF0B480C49B1
:1019EC000C4A002302E0D458C4500433C4188C426F
:1019FC00F9D3094A094C002301E013600432A242D6
:101A0C00FBD301F0F9FAFFF75FFA704700000020F2
:101A1C0078000020AC30000878000020780200200C
:101A2C00FEE7000080B500AF084B1B68074A43F087
:101A3C0010031360032000F023F90F2000F008F8C6
:101A4C00FFF73CFF0023184680BD00BF002002407A
:101A5C0080B582B000AF7860124B1A68124B1B78BD
:101A6C0019464FF47A73B3FBF1F3B2FBF3F3184658
:101A7C0000F03BF90346002B01D001230EE07B68FC
:101A8C000F2B0AD8002279684FF0FF3000F003F9D1
:101A9C00064A7B681360002300E0012318460837D0
:101AAC00BD4680BD6C00002074000020700000203A
:101ABC0080B400AF054B1B781A46054B1B681344CA
:101ACC00034A136000BFBD4680BC70477400002001
:101ADC007402002080B400AF024B1B681846BD4650
:101AEC0080BC70477402002080B485B000AF786071
:101AFC007B6803F00703FB600C4BDB68BB60BA68C8
:101B0C004FF6FF031340BB60FB681A02BB6813431C
:101B1C0043F0BF6343F40033BB60044ABB68D3603B
:101B2C0000BF1437BD4680BC704700BF00ED00E01D
:101B3C0080B400AF044BDB681B0A03F007031846A4
:101B4C00BD4680BC704700BF00ED00E080B483B0A0
:101B5C0000AF0346FB7197F90730002B0BDBFB79C9
:101B6C0003F01F02064997F907305B09012000FAC0
:101B7C0002F241F8232000BF0C37BD4680BC7047F1
:101B8C0000E100E080B483B000AF03463960FB7124
:101B9C0097F90730002B0ADB3B68DAB20C4997F94E
:101BAC0007301201D2B20B4483F800230AE03B68E1
:101BBC00DAB20849FB7903F00F03043B1201D2B2ED
:101BCC000B441A7600BF0C37BD4680BC704700BF73
:101BDC0000E100E000ED00E080B489B000AFF860F7
:101BEC00B9607A60FB6803F00703FB61FB69C3F122
:101BFC000703042B28BF0423BB61FB690433062BAA
:101C0C0002D9FB69033B00E000237B614FF0FF32FC
:101C1C00BB6902FA03F3DA43BB681A407B699A404A
:101C2C004FF0FF317B6901FA03F3D9437B680B401A
:101C3C00134318462437BD4680BC704780B582B02C
:101C4C0000AF78607B68013BB3F1807F01D3012347
:101C5C000FE00A4A7B68013B53600F214FF0FF30C5
:101C6C00FFF790FF054B00229A60044B07221A6085
:101C7C00002318460837BD4680BD00BF10E000E0C9
:101C8C0080B582B000AF78607868FFF72DFF00BF99
:101C9C000837BD4680BD80B586B000AF0346B9603D
:101CAC007A60FB7300237B61FFF742FF78617A68EF
:101CBC00B9687869FFF790FF024697F90F30114623
:101CCC001846FFF75FFF00BF1837BD4680BD80B5D3
:101CDC0082B000AF0346FB7197F907301846FFF747
:101CEC0035FF00BF0837BD4680BD80B582B000AF60
:101CFC0078607868FFF7A2FF034618460837BD46A0
:101D0C0080BD000080B48BB000AF786039600023D8
:101D1C007B6200233B6248E101227B6A02FA03F3F7
:101D2C00FB613B681B68FA691340BB61BA69FB69CC
:101D3C009A4240F037813B685B68A34A93425ED07D
:101D4C00A14A934275D8A14A934258D09F4A9342D4
:101D5C006FD89F4A934252D09D4A934269D89D4A6C
:101D6C0093424CD09B4A934263D89B4A934246D0B1
:101D7C00994A93425DD8122B2AD8122B59D801A21A
:101D8C0052F823F00B1E0008E51D0008F71D000893
:101D9C00391E00083F1E00083F1E00083F1E0008A9
:101DAC003F1E00083F1E00083F1E00083F1E000893
:101DBC003F1E00083F1E00083F1E00083F1E000883
:101DCC003F1E00083F1E0008ED1D0008011E000804
:101DDC00824A934213D02CE03B68DB683B6229E0DB
:101DEC003B68DB6804333B6224E03B68DB68083308
:101DFC003B621FE03B68DB680C333B621AE03B68DC
:101E0C009B68002B02D104233B6213E03B689B6868
:101E1C00012B05D108233B627B68FA691A6109E042
:101E2C0008233B627B68FA695A6103E000233B623A
:101E3C0000E000BFBB69FF2B01D87B6801E07B6829
:101E4C0004337B61BB69FF2B02D87B6A9B0002E0E9
:101E5C007B6A083B9B003B617B691A680F213B69DD
:101E6C0001FA03F3DB431A40396A3B6901FA03F3C5
:101E7C001A437B691A603B685B6803F08053002B44
:101E8C0000F09080564B9B69554A43F001039361D7
:101E9C00534B9B6903F00103BB60BB68514A7B6ADF
:101EAC009B08023352F82330FB607B6A03F0030378
:101EBC009B000F2202FA03F3DB43FA681340FB602A
:101ECC007B68494A93420DD07B68484A934207D0BD
:101EDC007B68474A934201D1022304E0032302E0CA
:101EEC00012300E000237A6A02F00302920093407F
:101EFC00FA681343FB603B497B6A9B080233FA6820
:101F0C0041F823203B685B6803F48013002B06D058
:101F1C00384B9A683749BB6913438B6006E0354BE5
:101F2C009A68BB69DB43334913408B603B685B6841
:101F3C0003F40013002B06D02E4BDA682D49BB6935
:101F4C001343CB6006E02B4BDA68BB69DB432949B2
:101F5C001340CB603B685B6803F40033002B06D066
:101F6C00244B5A682349BB6913434B6006E0214B51
:101F7C005A68BB69DB431F4913404B603B685B6885
:101F8C0003F48033002B06D01A4B1A681949BB692D
:101F9C0013430B6006E0174B1A68BB69DB4315490A
:101FAC0013400B607B6A01337B623B681A687B6A67
:101FBC0022FA03F3002B7FF4AFAE00BF00BF2C3727
:101FCC00BD4680BC704700BF0000321000003110CD
:101FDC00000022100000211000001210000011104F
:101FEC00001002400000014000080140000C0140BC
:101FFC00001001400004014080B485B000AF78604F
:10200C000B467B807B689A687B881340002B02D040
:10201C000123FB7301E00023FB73FB7B1846143791
:10202C00BD4680BC704780B483B000AF78600B466F
:10203C007B8013467B707B78002B03D07A887B687F
:10204C001A6103E07B881A047B681A6100BF0C37A5
:10205C00BD4680BC704780B485B000AF78600B463D
:10206C007B807B68DB68FB607A88FB6813401A0412
:10207C00FB68D9437B880B401A437B681A6100BF0D
:10208C001437BD4680BC704780B586B000AF786011
:10209C007B68002B01D101236CE27B681B6803F089
:1020AC000103002B00F08780924B5B6803F00C035C
:1020BC00042B0CD08F4B5B6803F00C03082B12D154
:1020CC008C4B5B6803F48033B3F5803F0BD1894BA9
:1020DC001B6803F40033002B6CD07B685B68002B0F
:1020EC0068D1012346E27B685B68B3F5803F06D17B
:1020FC00804B1B687F4A43F4803313602EE07B686F
:10210C005B68002B0CD17B4B1B687A4A23F4803321
:10211C001360784B1B68774A23F4802313601DE00F
:10212C007B685B68B3F5A02F0CD1724B1B68714AAE
:10213C0043F4802313606F4B1B686E4A43F4803367
:10214C0013600BE06B4B1B686A4A23F480331360FB
:10215C00684B1B68674A23F4802313607B685B68B9
:10216C00002B13D0FFF7B6FC386108E0FFF7B2FC88
:10217C0002463B69D31A642B01D90323FAE15D4B68
:10218C001B6803F40033002BF0D014E0FFF7A2FC23
:10219C00386108E0FFF79EFC02463B69D31A642BBA
:1021AC0001D90323E6E1534B1B6803F40033002BE6
:1021BC00F0D100E000BF7B681B6803F00203002B2A
:1021CC0063D04C4B5B6803F00C03002B0BD0494BDA
:1021DC005B6803F00C03082B1CD1464B5B6803F4C3
:1021EC008033002B16D1434B1B6803F00203002BEA
:1021FC0005D07B681B69012B01D00123BAE13D4B53
:10220C001B6823F0F8027B685B69DB0039491343D8
:10221C000B603AE07B681B69002B20D0364B012207
:10222C001A60FFF757FC386108E0FFF753FC0246D1
:10223C003B69D31A022B01D903239BE12D4B1B685D
:10224C0003F00203002BF0D02A4B1B6823F0F8029A
:10225C007B685B69DB00274913430B6015E0264B59
:10226C0000221A60FFF736FC386108E0FFF732FCF9
:10227C0002463B69D31A022B01D903237AE11D4B89
:10228C001B6803F00203002BF0D17B681B6803F082
:10229C000803002B3AD07B689B69002B19D0174B95
:1022AC0001221A60FFF716FC386108E0FFF712FCF8
:1022BC0002463B69D31A022B01D903235AE10D4B79
:1022CC005B6A03F00203002BF0D0012000F09AFAB5
:1022DC001CE00A4B00221A60FFF7FCFB38610FE090
:1022EC00FFF7F8FB02463B69D31A022B08D90323EC
:1022FC0040E100BF00100240000042428004424214
:10230C009E4B5B6A03F00203002BE9D17B681B68D0
:10231C0003F00403002B00F0A6800023FB75974B01
:10232C00DB6903F08053002B0DD1944BDB69934A8E
:10233C0043F08053D361914BDB6903F08053BB6056
:10234C00BB680123FB758E4B1B6803F48073002B59
:10235C0018D18B4B1B688A4A43F480731360FFF7C8
:10236C00B9FB386108E0FFF7B5FB02463B69D31AAD
:10237C00642B01D90323FDE0814B1B6803F48073AC
:10238C00002BF0D07B68DB68012B06D17B4B1B6AE2
:10239C007A4A43F0010313622DE07B68DB68002B63
:1023AC000CD1764B1B6A754A23F001031362734BF5
:1023BC001B6A724A23F0040313621CE07B68DB681F
:1023CC00052B0CD16D4B1B6A6C4A43F00403136252
:1023DC006A4B1B6A694A43F0010313620BE0674BBB
:1023EC001B6A664A23F001031362644B1B6A634A3F
:1023FC0023F0040313627B68DB68002B15D0FFF716
:10240C0069FB38610AE0FFF765FB02463B69D31AAA
:10241C0041F28832934201D90323ABE0574B1B6A3C
:10242C0003F00203002BEED014E0FFF753FB3861EE
:10243C000AE0FFF74FFB02463B69D31A41F28832A0
:10244C00934201D9032395E04C4B1B6A03F0020322
:10245C00002BEED1FB7D012B05D1484BDB69474AA4
:10246C0023F08053D3617B68DB69002B00F0818003
:10247C00424B5B6803F00C03082B61D07B68DB6973
:10248C00022B46D13F4B00221A60FFF723FB386129
:10249C0008E0FFF71FFB02463B69D31A022B01D958
:1024AC00032367E0354B1B6803F00073002BF0D15E
:1024BC007B681B6AB3F5803F08D1304B5B6823F413
:1024CC0000327B689B682D4913434B602B4B5B6838
:1024DC0023F474127B68196A7B685B6A0B43274987
:1024EC0013434B60274B01221A60FFF7F3FA386154
:1024FC0008E0FFF7EFFA02463B69D31A022B01D929
:10250C00032337E01D4B1B6803F00073002BF0D046
:10251C002FE01C4B00221A60FFF7DCFA386108E050
:10252C00FFF7D8FA02463B69D31A022B01D90323D1
:10253C0020E0124B1B6803F00073002BF0D118E065
:10254C007B68DB69012B01D1012313E00B4B5B682A
:10255C00FB60FB6803F480327B681B6A9A4206D1ED
:10256C00FB6803F470127B685B6A9A4201D001230A
:10257C0000E0002318461837BD4680BD001002400D
:10258C00007000406000424280B584B000AF7860BB
:10259C0039607B68002B01D10123D0E06A4B1B68AA
:1025AC0003F007033A689A4210D9674B1B6823F073
:1025BC00070265493B6813430B60634B1B6803F0D0
:1025CC0007033A689A4201D00123B8E07B681B6884
:1025DC0003F00203002B20D07B681B6803F004037C
:1025EC00002B05D0594B5B68584A43F4E0635360A9
:1025FC007B681B6803F00803002B05D0534B5B680A
:10260C00524A43F460535360504B5B6823F0F00222
:10261C007B689B684D4913434B607B681B6803F0D8
:10262C000103002B40D07B685B68012B07D1474B23
:10263C001B6803F40033002B15D101237FE07B686A
:10264C005B68022B07D1414B1B6803F00073002B16
:10265C0009D1012373E03D4B1B6803F00203002BEF
:10266C0001D101236BE0394B5B6823F003027B68DB
:10267C005B68364913434B60FFF72CFAF8600AE0AD
:10268C00FFF728FA0246FB68D31A41F288329342CC
:10269C0001D9032353E02D4B5B6803F00C027B68DC
:1026AC005B689B009A42EBD1274B1B6803F0070336
:1026BC003A689A4210D2244B1B6823F00702224935
:1026CC003B6813430B60204B1B6803F007033A680D
:1026DC009A4201D0012332E07B681B6803F00403AB
:1026EC00002B08D0194B5B6823F4E0627B68DB6835
:1026FC00164913434B607B681B6803F00803002BDF
:10270C0009D0124B5B6823F460527B681B69DB00B9
:10271C000E4913434B6000F021F802460B4B5B68EB
:10272C001B0903F00F030A49CB5C22FA03F3094A95
:10273C001360094B1B681846FFF78AF900231846EB
:10274C001037BD4680BD00BF002002400010024083
:10275C00803000086C0000207000002080B487B02E
:10276C0000AF0023FB600023BB6000237B610023D0
:10277C007B6000233B611E4B5B68FB60FB6803F0D6
:10278C000C03042B02D0082B03D027E0194B3B6120
:10279C0027E0FB689B0C03F00F03174AD35C7B60AC
:1027AC00FB6803F48033002B10D0114B5B685B0C7F
:1027BC0003F00103114AD35CBB607B680D4A02FB3A
:1027CC0003F2BB68B2FBF3F37B6104E07B680C4A59
:1027DC0002FB03F37B617B693B6102E0054B3B61D0
:1027EC0000BF3B6918461C37BD4680BC704700BF14
:1027FC000010024000127A0090300008A03000084F
:10280C0000093D0080B485B000AF78600A4B1B68AE
:10281C000A4AA2FB03235B0A7A6802FB03F3FB6000
:10282C0000BFFB685A1EFA60002BF9D100BF00BF35
:10283C001437BD4680BC70476C000020D34D62102D
:10284C0080B582B000AF78607B68002B01D101238A
:10285C0041E07B6893F83D30DBB2002B06D17B68FE
:10286C00002283F83C207868FFF75AF87B68022234
:10287C0083F83D207B681A687B6804331946104640
:10288C0000F056FA7B68012283F846207B6801220F
:10289C0083F83E207B68012283F83F207B6801226D
:1028AC0083F840207B68012283F841207B68012259
:1028BC0083F842207B68012283F843207B68012245
:1028CC0083F844207B68012283F845207B68012231
:1028DC0083F83D20002318460837BD4680BD000014
:1028EC0080B485B000AF78607B6893F83D30DBB284
:1028FC00012B01D0012335E07B68022283F83D20B7
:10290C007B681B68DA687B681B6842F00102DA603E
:10291C007B681B68164A934209D07B681B68B3F12D
:10292C00804F04D07B681B68124A934211D17B689C
:10293C001B689B6803F00703FB60FB68062B10D039
:10294C007B681B681A687B681B6842F001021A607E
:10295C0007E07B681B681A687B681B6842F0010201
:10296C001A60002318461437BD4680BC704700BF60
:10297C00002C01400004004080B584B000AF7860AA
:10298C007B681B68DB68FB607B681B681B69BB6032
:10299C00BB6803F00203002B20D0FB6803F002039A
:1029AC00002B1BD07B681B686FF002021A617B68DE
:1029BC0001221A777B681B689B6903F00303002BC9
:1029CC0003D0786800F098F905E0786800F08BF98E
:1029DC00786800F09AF97B6800221A77BB6803F0DC
:1029EC000403002B20D0FB6803F00403002B1BD046
:1029FC007B681B686FF004021A617B6802221A77ED
:102A0C007B681B689B6903F44073002B03D07868C8
:102A1C0000F072F905E0786800F065F9786800F06C
:102A2C0074F97B6800221A77BB6803F00803002B4B
:102A3C0020D0FB6803F00803002B1BD07B681B68BD
:102A4C006FF008021A617B6804221A777B681B6896
:102A5C00DB6903F00303002B03D0786800F04CF91A
:102A6C0005E0786800F03FF9786800F04EF97B6873
:102A7C0000221A77BB6803F01003002B20D0FB68F0
:102A8C0003F01003002B1BD07B681B686FF0100247
:102A9C001A617B6808221A777B681B68DB6903F470
:102AAC004073002B03D0786800F026F905E07868B5
:102ABC0000F019F9786800F028F97B6800221A7781
:102ACC00BB6803F00103002B0CD0FB6803F001037F
:102ADC00002B07D07B681B686FF001021A617868C5
:102AEC00FEF722FBBB6803F08003002B0CD0FB68C5
:102AFC0003F08003002B07D07B681B686FF080020B
:102B0C001A61786800F06FFABB6803F04003002B81
:102B1C000CD0FB6803F04003002B07D07B681B68CC
:102B2C006FF040021A61786800F0F8F8BB6803F0A7
:102B3C002003002B0CD0FB6803F02003002B07D0E4
:102B4C007B681B686FF020021A61786800F042FA0B
:102B5C0000BF1037BD4680BD80B584B000AF786033
:102B6C0039600023FB737B6893F83C30012B01D157
:102B7C000223B4E07B68012283F83C207B680222AC
:102B8C0083F83D207B681B689B68BB60BB6823F0A7
:102B9C007703BB60BB6823F47F43BB607B681B6817
:102BAC00BA689A603B681B68B3F5005F3ED0B3F51A
:102BBC00005F00F28780B3F5805F00F08680B3F58C
:102BCC00805F7FD8702B1AD0702B7BD8602B50D0A5
:102BDC00602B77D8502B3CD0502B73D8402B58D02F
:102BEC00402B6FD8302B64D0302B6BD8202B60D07F
:102BFC00202B67D8002B5CD0102B5AD062E07B685E
:102C0C0018683B6899683B685A683B68DB6800F059
:102C1C006AF97B681B689B68BB60BB6843F07703F1
:102C2C00BB607B681B68BA689A604FE07B68186869
:102C3C003B6899683B685A683B68DB6800F053F95D
:102C4C007B681B689A687B681B6842F480429A60B8
:102C5C003CE07B6818683B6859683B68DB681A463F
:102C6C0000F0CAF87B681B685021184600F021F967
:102C7C002CE07B6818683B6859683B68DB681A462F
:102C8C0000F0E8F87B681B686021184600F011F929
:102C9C001CE07B6818683B6859683B68DB681A461F
:102CAC0000F0AAF87B681B684021184600F001F977
:102CBC000CE07B681A683B681B681946104600F0EC
:102CCC00F8F803E00123FB7300E000BF7B680122EE
:102CDC0083F83D207B68002283F83C20FB7B184660
:102CEC001037BD4680BD80B483B000AF786000BFA4
:102CFC000C37BD4680BC704780B483B000AF7860A1
:102D0C0000BF0C37BD4680BC704780B483B000AFA9
:102D1C00786000BF0C37BD4680BC704780B483B070
:102D2C0000AF786000BF0C37BD4680BC7047000018
:102D3C0080B485B000AF786039607B681B68FB603D
:102D4C007B682B4A934207D07B68B3F1804F03D04A
:102D5C007B68284A934208D1FB6823F07003FB6020
:102D6C003B685B68FA681343FB607B68204A9342BC
:102D7C0007D07B68B3F1804F03D07B681D4A934228
:102D8C0008D1FB6823F44073FB603B68DB68FA688E
:102D9C001343FB60FB6823F080023B685B691343C1
:102DAC00FB607B68FA681A603B689A687B68DA6239
:102DBC003B681A687B689A627B680D4A934203D120
:102DCC003B681A697B681A637B6801225A617B68CD
:102DDC001B6903F00103002B05D07B681B6923F0F2
:102DEC0001027B681A6100BF1437BD4680BC704776
:102DFC00002C01400004004080B487B000AFF860A4
:102E0C00B9607A60FB681B6A7B61FB681B6A23F004
:102E1C000102FB681A62FB689B693B613B6923F00A
:102E2C00F0033B617B681B013A6913433B617B698F
:102E3C0023F00A037B617A69BB6813437B61FB68EF
:102E4C003A699A61FB687A691A6200BF1C37BD4601
:102E5C0080BC704780B487B000AFF860B9607A600E
:102E6C00FB681B6A7B61FB681B6A23F01002FB6822
:102E7C001A62FB689B693B613B6923F470433B61BD
:102E8C007B681B033A6913433B617B6923F0A00306
:102E9C007B61BB681B017A6913437B61FB683A69F0
:102EAC009A61FB687A691A6200BF1C37BD4680BC08
:102EBC00704780B485B000AF786039607B689B68E0
:102ECC00FB60FB6823F07003FB603A68FB681343FC
:102EDC0043F00703FB607B68FA689A6000BF143705
:102EEC00BD4680BC704780B487B000AFF860B96055
:102EFC007A603B60FB689B687B617B6923F47F4352
:102F0C007B613B681A027B681A43BB6813437A697E
:102F1C0013437B61FB687A699A6000BF1C37BD461E
:102F2C0080BC704780B485B000AF786039607B6836
:102F3C0093F83C30012B01D1022341E07B68012244
:102F4C0083F83C207B68022283F83D207B681B6859
:102F5C005B68FB607B681B689B68BB60FB6823F04D
:102F6C007003FB603B681B68FA681343FB607B686B
:102F7C001B68FA685A607B681B68144A934209D034
:102F8C007B681B68B3F1804F04D07B681B68104AC8
:102F9C0093420CD1BB6823F08003BB603B685B6839
:102FAC00BA681343BB607B681B68BA689A607B681D
:102FBC00012283F83D207B68002283F83C2000230B
:102FCC0018461437BD4680BC704700BF002C01402A
:102FDC000004004080B483B000AF786000BF0C37B1
:102FEC00BD4680BC704780B483B000AF786000BF32
:102FFC000C37BD4680BC704770B500260C4D0D4C8F
:10300C00641BA410A64209D100F022F800260A4D38
:10301C000A4C641BA410A64205D170BD55F8043BA4
:10302C0098470136EEE755F8043B98470136F2E72E
:10303C00A4300008A4300008A4300008A830000810
:10304C0003460244934200D1704703F8011BF9E791
:10305C00F8B500BFF8BC08BC9E467047F8B500BF79
:08306C00F8BC08BC9E46704749
:10307400407924301912027800100000000000008A
:103084000000000001020304060708090203040506
:10309400060708090A0B0C0D0E0F101001020000A0
:0430A40031010008EE
:0430A8000D0100080E
:1030AC000100000001000000010000000100000010
:1030BC000100000001000000010000000100000000
:1030CC0001000000010000000100000001000000F0
:1030DC006400000064000000640000000010014067
:1030EC000010014000100140002000400080000052
:1030FC0001000000020000000300000004000000BA
:10310C0005000000020000000300000000127A001D
:08311C0010000000010000009A
:04000005080019E5F1
:00000001FF
